:060000000A128A11002A19
:10000800F000030EF100031383120B1816200B19CE
:1000180030200C185B208C18C120710E8300F00E64
:10002800700E0900861D1E20061D2420061E2A208B
:100038000B100800A20A2108053C0319A2010800B8
:10004800A10A2108033C0319A1010800A00A2008FD
:10005800043C0319A001080003138312EC3081004B
:100068000B11372008008811081188100810BE19D4
:1000780055283E194F28BE1849283E1843283F08DE
:10008800870088153E10BE14080040088700081530
:10009800BE103E1508004108870088143E11BE15A1
:1000A8000800420887000814BE113E140800031314
:1000B80083120B308F00DC308E000C106920A30AED
:1000C8002308023C031975200800B10A0516851695
:1000D8003108023C031971280800B1010512851284
:1000E8000800A301A40A24080A3C0319A40103195F
:1000F800A50A2508063C0319A50103198420080050
:10010800A60A26080A3C0319A6010319A70A270804
:10011800023C0319902008002608043C0319952086
:100128000800A401A501A601A701BA0AB60A3A085F
:100138000A3C0319BB0A0319BA0135081421B9008E
:10014800360839020319B32035080D3C0319AD28C8
:1001580008000130B500BC01BD013C140800B50A17
:10016800BC0A3C080A3C0319BD0A0319BC01BA01C0
:100178003A140130B600BB0108008C10A80A280800
:10018800143C0319A801031D0800AA1CAB032B0883
:100198000319CF2008002A18DA202A1808003B3053
:1001A800AB00AC032C0803192A1408002B08031908
:1001B800AA14AA18E02008000914A90A2908B03CC2
:0601C800031909100800F4
:100200008A010A140F3982073F3406345B344F34B5
:1002100066346D347D3407347F346F3477347C3406
:1002200039345E34793471348A010A140F39820703
:10023000003420341D3420341F3420341F34203443
:0A02400020341F3420341F34203412
:100400009B24C424CB24D824E824F72406250313F2
:100410008312A001A101A201A301A401A501A601CB
:10042000A701B101BF01B6013614B5013514B901F8
:10043000B916BA013A14BB01BC013C14BD01B801A4
:10044000B7012030B700AA01AB01AC01AD01AE018C
:10045000AF01B001A901A801AB01AC0103138316E0
:10046000161E16160313831220080311003A0319EF
:10047000492A20080311013A0319FC2A2008031114
:10048000023A0319CA2B20080311033A03198E2CD0
:100490002E2A03138312101C101403138312051445
:1004A00085100511851105138513BF01240800214E
:1004B000BF0025080021C00026080021C100270830
:1004C0000021C20021080311013A03196D2A2108F5
:1004D0000311023A0319A12A2E2A031383161612B6
:1004E00003138312101005178513061C8C2A861C13
:1004F000902ABF0124080021BF0025080021C00068
:1005000026080021C10027080021C200210803118C
:10051000023A0319A12A6D2A061C8C2A95226D2AFB
:10052000861C902AA403BE226D2AA40A24080A3C31
:100530000319A4010319A50A2508063C0319A501FE
:1005400008000313831616120313831210100513E9
:100550008517061CCE2A861CD22ABF01240800213A
:10056000BF0025080021C00026080021C10027087F
:100570000021C20021080319492AA12A0311FF30D2
:100580002402031D0800A5030930A4000311FF3055
:100590002502031D08000530A5000800061CCE2A10
:1005A000E922A12A861CD22AA603D722A12A031156
:1005B000FF302602031D0800A7030930A60003111F
:1005C000FF302702031D08000230A7000330A600F9
:1005D0000800A60A26080A3C0319A6010319A70A5F
:1005E0002708023C0319F52A08002608043C0319D1
:1005F000A6010319A701080003138312101C10148D
:100600000313831205108514051185110513851335
:10061000BF013C080021BF003D080021C0003A088E
:100620000021C1003B080021C20021080311013A4A
:100630000319202B21080311023A03197A2B2E2AC1
:100640000313831616120313831210100517851354
:10065000061C432B861C3F2BBF013C080021BF001A
:100660003D080021C0003A080021C1003B080021DC
:10067000C20021080311023A03197A2B202B861C91
:100680003F2B4723202B061C432B6823202BBA012A
:10069000BB010130B6003A14B503031D512B0C30D9
:1006A000B50053230800BD01BC013508B8000A306D
:1006B000B802BD0A0318572BBD030A30B807013032
:1006C000B802BC0A03185F2BBC030130B80708004E
:1006D000BC0AB50A3C080A3C0319BC010319BD0A4F
:1006E00035080D3C031D08000130B500BC01BD01FB
:1006F0003C14080003138316161203138312101000
:100700000513851735081421B900061C9A2B861C81
:100710009E2BBF013C080021BF003D080021C00006
:100720003A080021C1003B080021C200210803193A
:10073000FC2A7A2B061C9A2BA223202B861C9E2B8C
:10074000AB23202BB60A360839020319B601031968
:10075000B60AB5230800B60336080319B123B5233A
:1007600008003908B600B6030800BA01BB01360814
:10077000B7000A30B702BB0A0318B92BBB030A3013
:10078000B7070130B702BA0A0318C12BBA03013008
:10079000B707080003138312101C101403138312ED
:1007A000051085100515851105130513BF012D08CA
:1007B0000021BF002E080021C0002F080021C10029
:1007C00030080021C20021080311013A0319EE2B61
:1007D00021080311023A03193E2C2E2A0313831613
:1007E0001612031383121211910103138312AB012A
:1007F00005178513061C112C861C162CBF012D080D
:100800000021BF002E080021C0002F080021C100D8
:1008100030080021C20021080311023A03193E2CBE
:10082000EE2B061C112CAB0A1B24EE2B861C162C5F
:10083000AB032124EE2B2B083C3C0319AB012924EC
:1008400008002B08FF3C03193B300319AB00292497
:100850000800AD01AE012B08B3000A30B302AE0AA6
:1008600003182D2CAE030A30B3070130B302AD0AD2
:100870000318352CAD030130B307080003138316AA
:100880001612031383121211910103138312AC0188
:1008900005138517061C5F2C861C642CBF012D08D0
:1008A0000021BF002E080021C0002F080021C10038
:1008B00030080021C20021080319CA2B3E2C061C57
:1008C0005F2CAC0A69243E2C861C642CAC036F247C
:1008D0003E2C2C08643C0319AC01772408002C083A
:1008E000FF3C031963300319AC007724080003139D
:1008F0008312AF01B0012C08B4000A30B402B00A70
:1009000003187D2CB0030A30B4070130B402AF0ADB
:100910000318852CAF030130B407080003138312BA
:10092000101C101403138312051085100511851572
:10093000051305132E2A0317831688018901031353
:10094000831685010313831606148614061586156F
:1009500006160313831681139501031383161514CA
:100960009514151595151516031383168701031392
:10097000831688110811881008100313831285014B
:100980008601870188010800031383160F140F17CF
:100990008F120F160800031383168112811101159F
:1009A0008114011403138312EC3081000B11080031
:1009B0000313831290109011901610161013101438
:1009C000031383120B308F00DC308E000C100800F4
:1009D00003138316F03092000313831291019214D3
:1009E00012148C101217921612129211080003138F
:1009F00083160C148C14031383128B170B178B168E
:100A00008B150B100B110C108C10080003138316A0
:100A10001616961516150313831206080B100800F8
:04400E00D420FF3F7C
:00000001FF
