:060000000A128A11142906
:10000800F000030EF1000B1814200B192E200C1809
:1000180059208C189820710E8300F00E700E09007C
:10002800861D2220061D2220061E28200B100800EF
:10003800A20A2108053C0319A2010800A10A210807
:10004800043C0319A1010800A00A2008043C031974
:10005800A001080003138312EC3081000B11352036
:1000680008000810881008118811A919532829199F
:100078004D28A9184728291841282A0887008815D3
:100088002910A91408002B0887000815A91029159C
:1000980008002C08870088142911A91508002D08C4
:1000A80087000814A91129140800031383120B30C0
:1000B8008F00DC308E000C10A30A2308783C03194B
:1000C80067208C200800A301A40A24080A3C03190D
:1000D800A4010319A50A2508063C0319A50103195B
:1000E80076200800A60A26080A3C0319A601031967
:1000F800A70A2708023C0319822008002608043CA6
:10010800031987200800A401A501A601A70108007A
:10011800A80A051685162808023C03199428080021
:0C012800A8010512851208008C100800C8
:100200008A010A140F3982073F3406345B344F34B5
:1002100066346D347D3407347F346F3477347C3406
:1002200039345E34793471346E2197219E21AB21AB
:10023000BB21CB21DA2103138312A001A101A2016A
:10024000A301A401A501A601A701A801A901AA0172
:1002500020080311003A03193D2920080311013A2F
:100260000319532920080311023A03195C292008B5
:100270000311033A0319652928290313831205146E
:1002800085100511851105130513AA012408002105
:10029000AA0025080021AB0026080021AC00270891
:1002A0000021AD00282903138312051085140511C0
:1002B00085110513051328290313831205108510D2
:1002C000051585110513051328290313831205103D
:1002D00085100511851505130513282903178316A5
:1002E00088018901031383168501031383160614FD
:1002F00086140615861506160313831681139501B9
:100300000313831615149514151595151516031357
:1003100083168701031383168811081188100810AB
:1003200003138312850186018701880108000313E6
:1003300083160F140F178F120F160800031383165E
:100340008112811101158114011403138312EC3001
:1003500081000B1108000313831290109011901666
:10036000101610131014031383120B308F00DC309F
:100370008E000C10080003138316F0309200031354
:1003800083129101921412148C10121792161212E9
:10039000921112150800031383160C148C14031306
:1003A00083128B170B178B168B150B100B110C1060
:1003B0008C100800031383161616961516150313D2
:0803C000831206080B1008006F
:04400E00D420FF3F7C
:00000001FF
