:060000000A128A11002A19
:10000800F000030EF100031383120B1816200B19CE
:1000180030200C185B208C18BF20710E8300F00E66
:10002800700E0900861D1E20061D2420061E2A208B
:100038000B100800A20A2208053C0319A2010800B7
:10004800A10A2108033C0319A1010800A00A2008FD
:10005800033C0319A001080003138312EC3081004C
:100068000B11372008008811081188100810BE19D4
:1000780055283E194F28BE1849283E1843283F08DE
:10008800870088153E10BE14080040088700081530
:10009800BE103E1508004108870088143E11BE15A1
:1000A8000800420887000814BE113E140800031314
:1000B80083120B308F00DC308E000C106920A30AED
:1000C8002308023C031973200800B10A05163108F9
:1000D800023C031970280800B10105120800A301A9
:1000E800A40A24080A3C0319A4010319A50A25082F
:1000F800063C0319A501031982200800A60A260850
:100108000A3C0319A6010319A70A2708023C031988
:100118008E2008002608043C031993200800A40137
:10012800A501A601A701BA0AB60A3A080A3C0319AA
:10013800BB0A0319BA0135081421B9003608390277
:100148000319B12035080D3C0319AB28080001300C
:10015800B500BC01BD013C140800B50ABC0A3C0846
:100168000A3C0319BD0A0319BC01BA013A1401304B
:10017800B600BB0108008C10A80A2808143C031913
:10018800A801031D0800AB032B08890008002A18E2
:10019800D6202A1808003B30AB00AC032C08031902
:1001A8002A140800AA140914A90A29083C3C0319AE
:0C01B8000910031904300319A20008000C
:100200008A010A140F3982073F3406345B344F34B5
:1002100066346D347D3407347F346F3477347C3406
:1002200039345E34793471348A010A140F39820703
:10023000003420341D3420341F3420341F34203443
:0A02400020341F3420341F34203412
:10040000AB24D624DD24EA24FA240A251925031373
:100410008312A001A101A201A301A401A501A601CB
:10042000A701B101BF01B6013614B5013514B901F8
:10043000B916BA013A14BB01BC013C14BD01B801A4
:10044000B7012030B700AA01AB01AC01AD01AE018C
:10045000AF01B001A901A801AB01AC0103138316E0
:10046000161E1616161D1615961D961503138312C5
:1004700020080311003A0319482A20080311013A01
:100480000319FA2A20080311023A0319C72B2E2A4E
:1004900003138312101C1014031383120514851008
:1004A000051105138513BF0124080021BF0025088D
:1004B0000021C00026080021C10027080021C20039
:1004C00021080311013A03196B2A21080311023A8A
:1004D00003199F2A2E2A031383161612031383125D
:1004E000101005178513061C8A2A861C8E2ABF0148
:1004F00024080021BF0025080021C0002608002193
:10050000C10027080021C20021080311023A031983
:100510009F2A6B2A061C8A2A93226B2A861C8E2A03
:10052000A403BC226B2AA40A24080A3C0319A401D0
:100530000319A50A2508063C0319A50108000313A1
:100540008316161203138312101005138517061C49
:10055000CC2A861CD02ABF0124080021BF00250810
:100560000021C00026080021C10027080021C20088
:1005700021080319482A9F2A0311FF302402031D72
:100580000800A5030930A4000311FF302502031D54
:1005900008000530A5000800061CCC2AE7229F2A87
:1005A000861CD02AA603D5229F2A0311FF302602DB
:1005B000031D0800A7030930A6000311FF3027021E
:1005C000031D08000230A7000330A6000800A60A99
:1005D00026080A3C0319A6010319A70A2708023CAA
:1005E0000319F32A08002608043C0319A60103197D
:1005F000A701080003138312101C101403138312A5
:1006000005108514051105138513BF013C08002151
:10061000BF003D080021C0003A080021C1003B088E
:100620000021C20021080311013A03191D2B2108E2
:100630000311023A0319772B2E2A0313831616127D
:1006400003138312101005178513061C402B861CFC
:100650003C2BBF013C080021BF003D080021C00029
:100660003A080021C1003B080021C2002108031103
:10067000023A0319772B1D2B861C3C2B44231D2B80
:10068000061C402B65231D2BBA01BB010130B600AF
:100690003A14B503031D4E2B0C30B500502308004F
:1006A000BD01BC013508B8000A30B802BD0A031804
:1006B000542BBD030A30B8070130B802BC0A031836
:1006C0005C2BBC030130B8070800BC0AB50A3C0823
:1006D0000A3C0319BC010319BD0A35080D3C031D72
:1006E00008000130B500BC01BD013C140800031333
:1006F000831616120313831210100513851735087D
:100700001421B900061C972B861C9B2BBF013C08AB
:100710000021BF003D080021C0003A080021C100AF
:100720003B080021C20021080319FA2A772B061C76
:10073000972B9F231D2B861C9B2BA8231D2BB60AB2
:10074000360839020319B6010319B60AB2230800A4
:10075000B60336080319AE23B22308003908B600E1
:10076000B6030800BA01BB013608B7000A30B70269
:10077000BB0A0318B62BBB030A30B7070130B70218
:10078000BA0A0318BE2BBA030130B70708000313D7
:100790008312101C10140510851005150513851300
:1007A0004A249624BF012D080021BF002E080021F5
:1007B000C0002F080021C10030080021C20021081C
:1007C0000311013A0319112C21080311023A0319EC
:1007D0005F2C0313831616160313831222080311CA
:1007E000013A0319F42B2E2AAA01031383161611BA
:1007F00003138312121585154A249624BF012D0870
:100800000021BF002E080021C0002F080021C100D8
:1008100030080021C20020080311003A0319482AB9
:10082000F42B03138316161296110313831212115D
:10083000910105178513061C322C861C372CBF012D
:100840002D080021BF002E080021C0002F08002124
:10085000C10030080021C20021080311023A031927
:100860005F2C112C061C322CAB0A3C24112C861C4C
:10087000372CAB034224112C2B083C3C0319AB0151
:100880004A2408002B08FF3C03193B300319AB0036
:100890004A240800AD01AE012B08B3000A30B302B0
:1008A000AE0A03184E2CAE030A30B3070130B30270
:1008B000AD0A0318562CAD030130B307080003132B
:1008C0008316161296110313831212119101051348
:1008D0008517061C7E2C861C832CBF012D08002149
:1008E000BF002E080021C0002F080021C1003008E1
:1008F0000021C20021080319C72B5F2C061C7E2C87
:10090000AC0A88245F2C861C832CAC038E245F2CBD
:100910002C08643C0319AC01962408002C08FF3C09
:10092000031963300319AC0096240800AF01B0012D
:100930002C08B4000A30B402B00A03189A2CB00391
:100940000A30B4070130B402AF0A0318A22CAF0377
:100950000130B407080003178316880189010313C7
:100960008316850189010313831606148614061560
:100970008615061603138316811395010313831638
:10098000151495141515951515160313831687015F
:10099000031383168811081188100810031383129B
:1009A00085018601870188018901080003138316E8
:1009B0000F140F178F120F160800031383168112DE
:1009C000811101158114011403138312EC3081008D
:1009D0000B1108000313831290109011901610163B
:1009E00010131014031383120B308F00DC308E00B1
:1009F0000C10080003138316F030920003138312C7
:100A00009101921412148C10121792161212921154
:100A100012110800031383160C148C140313831291
:100A20008B170B178B168B150B100B110C108C10D2
:100A30000800031383161616961516150313831252
:060A400006080B1008007F
:04400E00D420FF3F7C
:00000001FF
