:060000000A128A11002A19
:10000800F000030EF100031383120B1816200B19CE
:1000180030200C185B208C18C120710E8300F00E64
:10002800700E0900861D1E20061D2420061E2A208B
:100038000B100800A20A2108053C0319A2010800B8
:10004800A10A2108033C0319A1010800A00A2008FD
:10005800043C0319A001080003138312EC3081004B
:100068000B11372008008811081188100810BB19D7
:1000780055283B194F28BB1849283B1843283C08EA
:10008800870088153B10BB1408003D088700081539
:10009800BB103B1508003E08870088143B11BB15B0
:1000A80008003F0887000814BB113B14080003131D
:1000B80083120B308F00DC308E000C106920A30AED
:1000C8002308023C031975200800AC0A051685169A
:1000D8002C08023C031971280800AC01051285128E
:1000E8000800A301A40A24080A3C0319A40103195F
:1000F800A50A2508063C0319A50103198420080050
:10010800A60A26080A3C0319A6010319A70A270804
:10011800023C0319902008002608043C0319952086
:100128000800A401A501A601A701B30AAF0A330874
:100138000A3C0319B40A0319B3012E081421B200AA
:100148002F0832020319B3202E080D3C0319AD28DD
:1001580008000130AE00B501B60135140800AE0A3A
:10016800B50A35080A3C0319B60A0319B501B301E3
:0E01780033140130AF00B40108008C100800F1
:100200008A010A140F3982073F3406345B344F34B5
:1002100066346D347D3407347F346F3477347C3406
:1002200039345E34793471348A010A140F39820703
:10023000003420341D3420341F3420341F34203443
:0A02400020341F3420341F34203412
:10040000B123DA23E123EE23FE230E241D2403135C
:100410008312A001A101A201A301A401A501A601CB
:10042000A701AC01BB01BC01AF012F14AE012E141A
:10043000B201B216B3013314B401B5013514B601DB
:10044000B101B0012030B000B7013714B801381441
:10045000B814B901B914BA01BA1403138316161EDD
:1004600016160313831220080311003A0319482AB1
:1004700020080311013A0319FB2A20080311023A4C
:100480000319972B20080311033A0319A42B2D2AD3
:1004900003138312101C1014031383120514851008
:1004A0000511851105138513BC0124080021BC002A
:1004B00025080021BD0026080021BE0027080021D4
:1004C000BF0021080311013A03196C2A2108031106
:1004D000023A0319A02A2D2A0313831616120313B6
:1004E0008312101005178513061C8B2A861C8F2A71
:1004F000BC0124080021BC0025080021BD002608FD
:100500000021BE0027080021BF0021080311023A84
:100510000319A02A6C2A061C8B2A94226C2A861C9A
:100520008F2AA403BD226C2AA40A24080A3C0319BA
:10053000A4010319A50A2508063C0319A501080012
:100540000313831616120313831210100513851755
:10055000061CCD2A861CD12ABC0124080021BC001F
:1005600025080021BD0026080021BE002708002123
:10057000BF0021080319482AA02A0311FF302402D2
:10058000031D0800A5030930A4000311FF30250254
:10059000031D08000530A5000800061CCD2AE8222E
:1005A000A02A861CD12AA603D622A02A0311FF3036
:1005B0002602031D0800A7030930A6000311FF301F
:1005C0002702031D08000230A7000330A600080020
:1005D000A60A26080A3C0319A6010319A70A270838
:1005E000023C0319F42A08002608043C0319A6015A
:1005F0000319A701080003138312101C101403131E
:100600008312051085140511851105138513BC018E
:1006100035080021BC0036080021BD003308002148
:10062000BE0034080021BF0021080311013A03195C
:100630001F2B21080311023A03197E2B2D2A0313C5
:100640008316161203138312101005178513061C48
:10065000422B861C3E2BBC0135080021BC0036080D
:100660000021BD0033080021BE0034080021BF0076
:1006700021080311023A03197E2B1F2B861C3E2BE7
:1006800046231F2B061C422B6C231F2BB301B401E6
:100690000130AF003314AE03031D502B0C30AE00FD
:1006A00055232E081421B2000800B601B5012E080A
:1006B000B1000A30B102B60A0318592BB6030A304A
:1006C000B107632308000130B102B50A0318632B98
:1006D000B5030130B1070800B50AAE0A35080A3C77
:1006E0000319B5010319B60A2E080D3C031D0800B5
:1006F0000130AE00B501B6013514080003138316AE
:10070000161203138312101005138517BC01350848
:100710000021BC0036080021BD0033080021BE00C6
:1007200034080021BF0021080319FB2A7E2B031384
:100730008312101C10140313831205108510051565
:100740008511051305132D2A03138312101C101491
:100750000313831205108510051185150513051364
:100760002D2A031783168801890103138316850137
:10077000031383160614861406158615061603132E
:1007800083168113950103138316151495141515FB
:100790009515151603138316870103138316881105
:1007A0000811881008100313831285018601870140
:1007B00088010800031383160F140F178F120F16EA
:1007C000080003138316811281110115811401148D
:1007D00003138312EC3081000B1108000313831202
:1007E000901090119016101610131014031383120A
:1007F0000B308F00DC308E000C10080003138316C2
:10080000F0309200031383129101921412148C1091
:100810001217921612129211121508000313831662
:100820000C148C14031383128B170B178B168B1558
:100830000B100B110C108C100800031383161616E6
:0E084000961516150313831206080B100800F8
:04400E00D420FF3F7C
:00000001FF
