:060000000A128A11002A19
:10000800F000030EF1000B1814200B192E200C1809
:1000180059208C18BF20710E8300F00E700E090055
:10002800861D1C20061D2220061E28200B100800F5
:10003800A20A2108053C0319A2010800A10A210807
:10004800043C0319A1010800A00A2008043C031974
:10005800A001080003138312EC3081000B11352036
:1000680008000810881008118811B4195328341989
:100078004D28B418472834184128350887008815B2
:100088003410B4140800360887000815B410341565
:1000980008003708870088143411B4150800380898
:1000A80087000814B41134140800031383120B30AA
:1000B8008F00DC308E000C10A30A2308013C0319C2
:1000C8006720B3200800A301A40A24080A3C0319E6
:1000D800A4010319A50A2508063C0319A50103195B
:1000E80076200800A60A26080A3C0319A601031967
:1000F800A70A2708023C0319822008002608043CA6
:10010800031987200800A401A501A601A701AC0ACC
:10011800AA0A2C080A3C0319AD0A0319AC012908DC
:100128001421AB002A082B020319A52029080D3C2D
:1001380003199F2808000130A900AE01AF012E1451
:100148000800A90AAE0A2E080A3C0319AF0A0319C7
:10015800AE01AC012C140130AA00AD010800A80AB8
:10016800051685162808023C0319BB280800A801B3
:0A0178000512851208008C10080023
:100200008A010A140F3982073F3406345B344F34B5
:1002100066346D347D3407347F346F3477347C3406
:1002200039345E34793471348A010A140F39820703
:10023000003420341D3420341F3420341F34203443
:0A02400020341F3420341F34203412
:100400008322AC22B322C022D022E022EF220313A7
:100410008312A001A101A201A301A401A501A601CB
:10042000A701A801B401B50124152515A614A71428
:10043000AA01A9012914AB01AB161F30AA00AC0117
:10044000AD01AE012E14AF012C142D14AD14B0016A
:100450003014B1013114B114B201B214B301B314A8
:1004600020080311003A0319452A20080311013A14
:1004700003195B2A20080311023A0319712A200884
:100480000311033A03197A2A302A0313831205143D
:1004900085100511851105130513B50124080021E8
:1004A000B50025080021B60026080021B70027085E
:1004B0000021B800302A031383120510851405119A
:1004C000851105130513B5012C080021B5002D0871
:1004D0000021B6002E080021B7002F080021B80027
:1004E000302A031383120510851005158511051395
:1004F0000513302A03138312051085100511851585
:1005000005130513302A0317831688018901031385
:1005100083168501031383160614861406158615A3
:1005200006160313831681139501031383161514FE
:1005300095141515951515160313831687010313C6
:10054000831688110811881008100313831285017F
:100550008601870188010800031383160F140F1703
:100560008F120F16080003138316811281110115D3
:100570008114011403138312EC3081000B11080065
:10058000031383129010901190161016101310146C
:10059000031383120B308F00DC308E000C10080028
:1005A00003138316F0309200031383129101921407
:1005B00012148C10121792161212921112150800B2
:1005C000031383160C148C14031383128B170B174D
:1005D0008B168B150B100B110C108C1008000313CD
:1005E00083161616961516150313831206080B109C
:0205F000080001
:04400E00D420FF3F7C
:00000001FF
