:060000000A128A11252AF4
:10000800F000030EF100031383120B1816200B19CE
:100018003B200C1866208C18CA20710E8300F00E45
:10002800700E0900061D2F20061E3520200803111A
:10003800023A0319262022080311033A031926203D
:100048000B100800861D29200800A20A2208053C7A
:100058000319A2010800A10A2108033C0319A10100
:100068000800A00A2008033C0319A0010800031394
:100078008312EC3081000B1142200800881108110E
:1000880088100810BE1960283E195A28BE1854282E
:100098003E184E283F08870088153E10BE140800F9
:1000A800400887000815BE103E1508004108870063
:1000B80088143E11BE150800420887000814BE11B6
:1000C8003E140800031383120B308F00DC308E00BF
:1000D8000C107420A30A2308783C03197E2008001A
:1000E800B10A05163108023C03197B280800B10142
:1000F80005120800A301A40A24080A3C0319A40154
:100108000319A50A2508063C0319A50103198D2022
:100118000800A60A26080A3C0319A6010319A70A1B
:100128002708023C0319992008002608043C0319F3
:100138009E200800A401A501A601A701BA0AB60AD3
:100148003A080A3C0319BB0A0319BA0135081422F4
:10015800B900360839020319BC2035080D3C0319CB
:10016800B62808000130B500BC01BD013C140800E8
:10017800B50ABC0A3C080A3C0319BD0A0319BC01AC
:10018800BA013A140130B600BB0108008C10A80A65
:100198002808143C031D08002A182429A801AB03C9
:1001A8002B08FF3C03193B300319AB000319FC2053
:1001B800DE20080003138312B301AD01AE012B0842
:1001C800B3000A30B302AE0A0318E528AE030A30BA
:1001D800B3070130B302AD0A0318ED28AD030130AF
:1001E800B3072D082E072F0730070319172108001A
:1001F80003138312AC0301210800B401AF01B0015D
:100208002C08B4000A30B402B00A03180629B00357
:100218000A30B4070130B402AF0A03180E29AF033D
:100228000130B407080003138312AD01AE01AF011A
:10023800B0012A140914891485110330A20008009A
:10024800A801A90A29083C3C03192B29DD280430F8
:04025800A2002A29AD
:100400008A018A140F3982073F3406345B344F3433
:1004100066346D347D3407347F346F3477347C3404
:1004200039345E34793471348A018A140F39820781
:10043000003420341D3420341F3420341F34203441
:1004400020341F3420341F34203433255F256625A3
:10045000732583259325A22503138312A001A101EF
:10046000A201A301A401A501A601A701B101BF0139
:10047000B6013614B5013514B901B916BA013A14EA
:10048000BB01BC013C14BD01B801B7012030B7006D
:10049000AA01AB01AC01AD01AE01AF01B001A901F0
:1004A000A801AB01AC0103138316161E1616161D08
:1004B0001615961D96150313831220080311003A92
:1004C00003196D2A20080311013A0319242B20086F
:1004D0000311023A0319FB2B532A03138312101C36
:1004E00010140313831205148510051105138513C9
:1004F000BF0124080022BF0025080022C0002608F2
:100500000022C10027080022C20021080311013A7D
:100510000319952A21080311023A0319C92A22084E
:100520000311043A0319862C532A03138316161257
:1005300003138312101005178513061CB42A861C9A
:10054000B82ABF0124080022BF0025080022C000ED
:1005500026080022C10027080022C200210803113A
:10056000023A0319C92A952A061CB42ABD22952AE3
:10057000861CB82AA403E622952AA40A24080A3C69
:100580000319A4010319A50A2508063C0319A501AE
:100590000800031383161612031383121010051399
:1005A0008517061CF62A861CFA2ABF012408002299
:1005B000BF0025080022C00026080022C10027082D
:1005C0000022C200210803196D2AC92A0311FF3035
:1005D0002402031D0800A5030930A4000311FF3005
:1005E0002502031D08000530A5000800061CF62A98
:1005F0001123C92A861CFA2AA603FF22C92A03113D
:10060000FF302602031D0800A7030930A6000311CE
:10061000FF302702031D08000230A7000330A600A8
:100620000800A60A26080A3C0319A6010319A70A0E
:100630002708023C03191D2B08002608043C031957
:10064000A6010319A701080003138312101C10143C
:100650000313831205108514051105138513BF01BB
:100660003C080022BF003D080022C0003A080022DA
:10067000C1003B080022C20021080311013A0319FE
:100680004C2B21080311023A0319AB2B220803114A
:10069000043A0319862C532A0313831616120313E4
:1006A0008312101005178513061C6F2B861C6B2BED
:1006B000BF013C080022BF003D080022C0003A08EC
:1006C0000022C1003B080022C20021080311023AA7
:1006D0000319AB2B4C2B861C6B2B73234C2B061C4A
:1006E0006F2B94234C2BBA01BB010130B6003A1496
:1006F000B503031D7D2B0C30B5007F230800BD0121
:10070000BC013508B8000A30B802BD0A0318832BB3
:10071000BD030A30B8070130B802BC0A03188B2B9E
:10072000BC030130B8070800BA01BB010130B600B4
:100730003A14BC0AB50A3C080A3C0319BC01031967
:10074000BD0A35080D3C031D08000130B500BC0191
:10075000BD013C1408000313831616120313831201
:1007600010100513851735081422B900061CCB2B71
:10077000861CCF2BBF013C080022BF003D08002291
:10078000C0003A080022C1003B080022C200210834
:100790000319242BAB2B061CCB2BD3234C2B861CF1
:1007A000CF2BDC234C2BB60A360839020319B601CD
:1007B0000319B60AE6230800B60336080319E22334
:1007C000E62308003908B600B6030800BA01BB01E9
:1007D0003608B7000A30B702BB0A0318EA2BBB037E
:1007E0000A30B7070130B702BA0A0318F22BBA036E
:1007F0000130B707080003138312101C10140510F2
:100800008510051505138513BF012D080022BF00B3
:100810002E080022C0002F080022C100300800224C
:10082000C20021080311013A0319992C2108031170
:10083000023A0319E72C03138316161603138312C7
:1008400022080311013A0319352C22080311023A38
:100850000319632C22080311033A03196C2C220894
:100860000311043A0319862C532A2D082E072F074B
:1008700030070319A2010319FB2B0313831616116A
:1008800003138312121D12158515AA01BF012D082D
:100890000022BF002E080022C0002F080022C10045
:1008A00030080022C20020080311003A03196D2A03
:1008B00022080311023A0319632C22080311033A98
:1008C00003196C2C352C031383121211A20185110C
:1008D00022080319FB2B632C03138312BF012D087D
:1008E0000022BF002E080022C0002F080022C100F5
:1008F00030080022C20022080311043A0319862C92
:1009000020080311003A03196D2A6C2C031383127B
:10091000121109108910AA01A801AB01AC01A901AB
:10092000AD01AE01AF01B001A20122080319FB2BFA
:10093000862C0313831616129611031383121211B9
:10094000910105178513061CBA2C861CBF2CBF010C
:100950002D080022BF002E080022C0002F08002210
:10096000C10030080022C20021080311023A031915
:10097000E72C992C061CBA2CAB0AC424992C861C93
:10098000BF2CAB03CA24992C2B083C3C0319AB01A8
:10099000D22408002B08FF3C03193B300319AB009D
:1009A000D2240800AD01AE012B08B3000A30B30217
:1009B000AE0A0318D62CAE030A30B3070130B302D7
:1009C000AD0A0318DE2CAD030130B3070800031392
:1009D0008316161296110313831212119101051337
:1009E0008517061C062D861C0B2DBF012D08002225
:1009F000BF002E080022C0002F080022C1003008CE
:100A00000022C20021080319FB2BE72C061C062D2F
:100A1000AC0A1025E72C861C0B2DAC031625E72C01
:100A20002C08643C0319AC011E2508002C08FF3C6F
:100A3000031963300319AC001E250800AF01B00193
:100A40002C08B4000A30B402B00A0318222DB003F7
:100A50000A30B4070130B402AF0A03182A2DAF03DD
:100A60000130B407080003178316880189010313B6
:100A70008316850109108910031383160614861442
:100A800006158615061603138316811395010313A5
:100A9000831615149514151595151516031383163D
:100AA0008701031383168811081188100810031397
:100AB00083128501860187018801890108000313DB
:100AC00083160F140F178F120F16080003138316C7
:100AD0008112811101158114011403138312EC306A
:100AE00081000B11080003138312901090119016CF
:100AF000101610131014031383120B308F00DC3008
:100B00008E000C10080003138316F03092000313BC
:100B100083129101921412148C1012179216121251
:100B2000921112110800031383160C148C14031372
:100B300083128B170B178B168B150B100B110C10C8
:100B40008C1008000313831616169615161503133A
:080B5000831206080B100800D7
:04400E00D420FF3F7C
:00000001FF
