:060000000A128A11252AF4
:10000800F000030EF100031383120B1816200B19CE
:100018003B200C1866208C18CA20710E8300F00E45
:10002800700E0900061D2F20061E3520200803111A
:10003800023A0319262022080311033A031926203D
:100048000B100800861D29200800A20A2208053C7A
:100058000319A2010800A10A2108033C0319A10100
:100068000800A00A2008033C0319A0010800031394
:100078008312EC3081000B1142200800881108110E
:1000880088100810BE1960283E195A28BE1854282E
:100098003E184E283F08870088153E10BE140800F9
:1000A800400887000815BE103E1508004108870063
:1000B80088143E11BE150800420887000814BE11B6
:1000C8003E140800031383120B308F00DC308E00BF
:1000D8000C107420A30A2308783C03197E2008001A
:1000E800B10A05163108023C03197B280800B10142
:1000F80005120800A301A40A24080A3C0319A40154
:100108000319A50A2508063C0319A50103198D2022
:100118000800A60A26080A3C0319A6010319A70A1B
:100128002708023C0319992008002608043C0319F3
:100138009E200800A401A501A601A701BA0AB60AD3
:100148003A080A3C0319BB0A0319BA0135081422F4
:10015800B900360839020319BC2035080D3C0319CB
:10016800B62808000130B500BC01BD013C140800E8
:10017800B50ABC0A3C080A3C0319BD0A0319BC01AC
:10018800BA013A140130B600BB0108008C10A80A65
:100198002808143C031D08002A182429A801AB03C9
:1001A8002B08FF3C03193B300319AB000319FC2053
:1001B800DE20080003138312B301AD01AE012B0842
:1001C800B3000A30B302AE0A0318E528AE030A30BA
:1001D800B3070130B302AD0A0318ED28AD030130AF
:1001E800B3072D082E072F0730070319172108001A
:1001F80003138312AC0301210800B401AF01B0015D
:100208002C08B4000A30B402B00A03180629B00357
:100218000A30B4070130B402AF0A03180E29AF033D
:100228000130B407080003138312AD01AE01AF011A
:10023800B0012A140914891485110330A20008009A
:10024800A801A90A29083C3C03192B29DD280430F8
:04025800A2002A29AD
:100400008A018A140F3982073F3406345B344F3433
:1004100066346D347D3407347F346F3477347C3404
:1004200039345E34793471348A018A140F39820781
:10043000003420341D3420341F3420341F34203441
:1004400020341F3420341F342034342560256725A0
:10045000742584259425A32503138312A001A101EB
:10046000A201A301A401A501A601A701B101BF0139
:10047000B6013614B5013514B901B916BA013A14EA
:10048000BB01BC013C14BD01B801B7012030B7006D
:10049000AA01AB01AC01AD01AE01AF01B001A901F0
:1004A000A801AB01AC0103138316161E1616161D08
:1004B0001615961D96150313831220080311003A92
:1004C00003196D2A20080311013A0319252B20086E
:1004D0000311023A0319FC2B532A03138312101C35
:1004E00010140313831205148510051105138513C9
:1004F000BF0124080022BF0025080022C0002608F2
:100500000022C10027080022C20021080311013A7D
:100510000319952A21080311023A0319C92A22084E
:100520000311043A0319872C532A03138316161256
:1005300003138312101005178513061CB42A861C9A
:10054000B82ABF0124080022BF0025080022C000ED
:1005500026080022C10027080022C200210803113A
:10056000023A0319C92A952A061CB42ABD22952AE3
:10057000861CB82AA403E722952AA40A24080A3C68
:100580000319A4010319A50A2508063C0319A501AE
:100590000800031383161612031383121010051399
:1005A0008517061CF72A861CFB2ABF012408002297
:1005B000BF0025080022C00026080022C10027082D
:1005C0000022C200A301210803196D2AC92A0311C0
:1005D000FF302402031D0800A5030930A400031105
:1005E000FF302502031D08000530A5000800061C89
:1005F000F72A1223C92A861CFB2AA6030023C92A2C
:100600000311FF302602031D0800A7030930A600CE
:100610000311FF302702031D08000230A70003303A
:10062000A6000800A60A26080A3C0319A601031919
:10063000A70A2708023C03191E2B08002608043CC1
:100640000319A6010319A701080003138312101C44
:100650001014031383120510851405110513851357
:10066000BF013C080022BF003D080022C0003A083C
:100670000022C1003B080022C20021080311013AF8
:1006800003194D2B21080311023A0319AC2B220840
:100690000311043A0319872C532A031383161612E5
:1006A00003138312101005178513061C702B861C6C
:1006B0006C2BBF013C080022BF003D080022C00097
:1006C0003A080022C1003B080022C20021080311A1
:1006D000023A0319AC2B4D2B861C6C2B74234D2B2B
:1006E000061C702B95234D2BBA01BB010130B600BF
:1006F0003A14B503031D7E2B0C30B500802308008F
:10070000BD01BC013508B8000A30B802BD0A0318A3
:10071000842BBD030A30B8070130B802BC0A0318A5
:100720008C2BBC030130B8070800BA01BB010130B3
:10073000B6003A14BC0AB50A3C080A3C0319BC01CD
:100740000319BD0A35080D3C031D08000130B50032
:10075000BC01BD013C1408000313831616120313D9
:10076000831210100513851735081422B900061CD2
:10077000CC2B861CD02BBF013C080022BF003D08BB
:100780000022C0003A080022C1003B080022C2003B
:1007900021080319252BAC2B061CCC2BD4234D2B65
:1007A000861CD02BDD234D2BB60A360839020319DF
:1007B000B6010319B60AE7230800B6033608031981
:1007C000E323E72308003908B600B6030800BA019E
:1007D000BB013608B7000A30B702BB0A0318EB2B7F
:1007E000BB030A30B7070130B702BA0A0318F32B6C
:1007F000BA030130B707080003138312101C10144A
:1008000005108510051505138513BF012D0800225D
:10081000BF002E080022C0002F080022C1003008AF
:100820000022C20021080311013A03199A2C210861
:100830000311023A0319E82C031383161616031347
:10084000831222080311013A0319362C22080311DE
:10085000023A0319642C22080311033A03196D2C80
:1008600022080311043A0319872C532A2D082E0756
:100870002F0730070319A2010319FC2B031383165A
:10088000161103138312121D12158515AA01BF013B
:100890002D080022BF002E080022C0002F080022D1
:1008A000C10030080022C20020080311003A0319D9
:1008B0006D2A22080311023A0319642C220803113D
:1008C000033A03196D2C362C031383121211A20163
:1008D000851122080319FC2B642C03138312BF011A
:1008E0002D080022BF002E080022C0002F08002281
:1008F000C10030080022C20022080311043A031983
:10090000872C20080311003A03196D2A6D2C03135C
:100910008312121109108910AA01A801AB01AC01C0
:10092000A901AD01AE01AF01B001A2012208031976
:10093000FC2B872C031383161612961103138312B4
:100940001211910105178513061CBB2C861CC02CA7
:10095000BF012D080022BF002E080022C0002F0872
:100960000022C10030080022C20021080311023A0F
:100970000319E82C9A2C061CBB2CAB0AC5249A2C14
:10098000861CC02CAB03CB249A2C2B083C3C0319AF
:10099000AB01D32408002B08FF3C03193B3003199B
:1009A000AB00D3240800AD01AE012B08B3000A3020
:1009B000B302AE0A0318D72CAE030A30B3070130D6
:1009C000B302AD0A0318DF2CAD030130B3070800F2
:1009D0000313831616129611031383121211910139
:1009E00005138517061C072D861C0C2DBF012D082D
:1009F0000022BF002E080022C0002F080022C100E4
:100A000030080022C20021080319FC2BE82C061C28
:100A1000072DAC0A1125E82C861C0C2DAC031725DC
:100A2000E82C2C08643C0319AC011F2508002C0895
:100A3000FF3C031963300319AC001F250800AF0108
:100A4000B0012C08B4000A30B402B00A0318232DF8
:100A5000B0030A30B4070130B402AF0A03182B2DDB
:100A6000AF030130B407080003178316880189011A
:100A700003138316850109108910031383160614C6
:100A80008614061586150616031383168113950121
:100A900003138316151495141515951515160313C0
:100AA0008316870103138316881108118810081014
:100AB00003138312850186018701880189010800DB
:100AC000031383160F140F178F160F12080003134A
:100AD00083168112811101158114011403138312ED
:100AE000EC3081000B110800031383129010901159
:100AF0009016101610131014031383120B308F006E
:100B0000DC308E000C10080003138316F0309200C6
:100B1000031383129101921412148C10121792165F
:100B20001212921112110800031383160C148C1464
:100B3000031383128B170B178B168B150B100B11CE
:100B40000C108C1008000313831616169615161534
:0A0B50000313831206080B100800BF
:04400E00D420FF3F7C
:00000001FF
