:060000000A128A11252AF4
:10000800F000030EF100031383120B1816200B19CE
:1000180036200C1861208C18C520710E8300F00E54
:10002800700E0900061D2A20061E30202008031124
:10003800023A031921200B100800861D242008000D
:10004800A20A2208053C0319A2010800A10A2108F6
:10005800033C0319A1010800A00A2008033C031966
:10006800A001080003138312EC3081000B113D201E
:1000780008008811081188100810BE195B283E195D
:100088005528BE184F283E1849283F08870088156C
:100098003E10BE140800400887000815BE103E1523
:1000A80008004108870088143E11BE150800420860
:1000B80087000814BE113E140800031383120B3086
:1000C8008F00DC308E000C106F20A30A2308023C3E
:1000D800031979200800B10A05163108023C0319F2
:1000E80076280800B10105120800A301A40A240813
:1000F8000A3C0319A4010319A50A2508063C03199B
:10010800A501031988200800A60A26080A3C031935
:10011800A6010319A70A2708023C0319942008001E
:100128002608043C031999200800A401A501A6018A
:10013800A701BA0AB60A3A080A3C0319BB0A031906
:10014800BA0135081422B900360839020319B72054
:1001580035080D3C0319B12808000130B500BC0171
:10016800BD013C140800B50ABC0A3C080A3C031946
:10017800BD0A0319BC01BA013A140130B600BB012B
:1001880008008C10A80A2808143C031D08002A1827
:100198001E29A801AB032B08FF3C03193B300319A8
:1001A800AB000319F720D920080003138312B30109
:1001B800AD01AE012B08B3000A30B302AE0A031832
:1001C800E028AE030A30B3070130B302AD0A0318C2
:1001D800E828AD030130B3072D082E072F07300795
:1001E80003191221080003138312AC03FC20080032
:1001F800B401AF01B0012C08B4000A30B402B00A4F
:1002080003180129B0030A30B4070130B402AF0A59
:1002180003180929AF030130B40708000313831238
:10022800AD01AE01AF01B0012A14091485110330E4
:10023800A2000800A801A90A29083C3C031925299D
:08024800D8280430A20024298B
:100400008A018A140F3982073F3406345B344F3433
:1004100066346D347D3407347F346F3477347C3404
:1004200039345E34793471348A018A140F39820781
:10043000003420341D3420341F3420341F34203441
:1004400020341F3420341F342034272552255925C9
:10045000662576258625952503138312A001A10123
:10046000A201A301A401A501A601A701B101BF0139
:10047000B6013614B5013514B901B916BA013A14EA
:10048000BB01BC013C14BD01B801B7012030B7006D
:10049000AA01AB01AC01AD01AE01AF01B001A901F0
:1004A000A801AB01AC0103138316161E1616161D08
:1004B0001615961D96150313831220080311003A92
:1004C00003196D2A20080311013A0319242B20086F
:1004D0000311023A0319F62B532A03138312101C3B
:1004E00010140313831205148510051105138513C9
:1004F000BF0124080022BF0025080022C0002608F2
:100500000022C10027080022C20021080311013A7D
:100510000319952A21080311023A0319C92A22084E
:100520000311043A03197B2C532A03138316161262
:1005300003138312101005178513061CB42A861C9A
:10054000B82ABF0124080022BF0025080022C000ED
:1005500026080022C10027080022C200210803113A
:10056000023A0319C92A952A061CB42ABD22952AE3
:10057000861CB82AA403E622952AA40A24080A3C69
:100580000319A4010319A50A2508063C0319A501AE
:100590000800031383161612031383121010051399
:1005A0008517061CF62A861CFA2ABF012408002299
:1005B000BF0025080022C00026080022C10027082D
:1005C0000022C200210803196D2AC92A0311FF3035
:1005D0002402031D0800A5030930A4000311FF3005
:1005E0002502031D08000530A5000800061CF62A98
:1005F0001123C92A861CFA2AA603FF22C92A03113D
:10060000FF302602031D0800A7030930A6000311CE
:10061000FF302702031D08000230A7000330A600A8
:100620000800A60A26080A3C0319A6010319A70A0E
:100630002708023C03191D2B08002608043C031957
:10064000A6010319A701080003138312101C10143C
:100650000313831205108514051105138513BF01BB
:100660003C080022BF003D080022C0003A080022DA
:10067000C1003B080022C20021080311013A0319FE
:100680004C2B21080311023A0319A62B220803114F
:10069000043A03197B2C532A0313831616120313EF
:1006A0008312101005178513061C6F2B861C6B2BED
:1006B000BF013C080022BF003D080022C0003A08EC
:1006C0000022C1003B080022C20021080311023AA7
:1006D0000319A62B4C2B861C6B2B73234C2B061C4F
:1006E0006F2B94234C2BBA01BB010130B6003A1496
:1006F000B503031D7D2B0C30B5007F230800BD0121
:10070000BC013508B8000A30B802BD0A0318832BB3
:10071000BD030A30B8070130B802BC0A03188B2B9E
:10072000BC030130B8070800BC0AB50A3C080A3C03
:100730000319BC010319BD0A35080D3C031D08004F
:100740000130B500BC01BD013C1408000313831641
:10075000161203138312101005138517350814227F
:10076000B900061CC62B861CCA2BBF013C08002200
:10077000BF003D080022C0003A080022C1003B082B
:100780000022C20021080319242BA62B061CC62B0D
:10079000CE234C2B861CCA2BD7234C2BB60A3608EB
:1007A00039020319B6010319B60AE1230800B6039A
:1007B00036080319DD23E12308003908B600B60323
:1007C0000800BA01BB013608B7000A30B702BB0AFD
:1007D0000318E52BBB030A30B7070130B702BA0A8A
:1007E0000318ED2BBA030130B70708000313831277
:1007F000101C101405108510051505138513C6244B
:100800001225BF012D080022BF002E080022C000C3
:100810002F080022C10030080022C2002108031165
:10082000013A03198D2C21080311023A0319DB2C1C
:100830000313831616160313831222080311013AB9
:100840000319322C22080311023A0319602C2208E2
:100850000311033A0319692C22080311043A0319FE
:100860007B2C532A2D082E072F0730070319A201CE
:100870000319F62B03138316161103138312121D8B
:1008800012158515AA01BF012D080022BF002E08F0
:100890000022C0002F080022C10030080022C20040
:1008A00020080311003A03196D2A22080311023AA5
:1008B0000319602C22080311033A0319692C322C06
:1008C000031383121211A201851122080319F62BBA
:1008D000602C03138312AD01AE01AF01B00185118D
:1008E00022080311043A03197B2C20080311003A53
:1008F00003196D2A692C0313831212110910AA011E
:10090000A801AB01AC01A901AD01AE01AF01B0017D
:10091000A20122080319F62B7B2C0313831616124F
:100920009611031383121211910105178513061CEA
:10093000AE2C861CB32CBF012D080022BF002E0850
:100940000022C0002F080022C10030080022C2008F
:1009500021080311023A0319DB2C8D2C061CAE2C46
:10096000AB0AB8248D2C861CB32CAB03BE248D2C73
:100970002B083C3C0319AB01C62408002B08FF3CA4
:1009800003193B300319AB00C6240800AD01AE01CA
:100990002B08B3000A30B302AE0A0318CA2CAE0308
:1009A0000A30B3070130B302AD0A0318D22CAD03ED
:1009B0000130B307080003138316161296110313B0
:1009C00083121211910105138517061CFA2C861C3F
:1009D000FF2CBF012D080022BF002E080022C000FE
:1009E0002F080022C10030080022C200210803198C
:1009F000F62BDB2C061CFA2CAC0A0425DB2C861CFF
:100A0000FF2CAC030A25DB2C2C08643C0319AC0139
:100A1000122508002C08FF3C031963300319AC00B1
:100A200012250800AF01B0012C08B4000A30B4024E
:100A3000B00A0318162DB0030A30B4070130B4020F
:100A4000AF0A03181E2DAF030130B40708000317C7
:100A50008316880189010313831685018901031315
:100A600083160614861406158615061603138316B8
:100A700081139501031383161514951415159515F7
:100A800015160313831687010313831688110811A3
:100A900088100810031383128501860187018801DD
:100AA00089010800031383160F140F178F120F16F6
:100AB000080003138316811281110115811401149A
:100AC00003138312EC3081000B110800031383120F
:100AD0009010901190161016101310140313831217
:100AE0000B308F00DC308E000C10080003138316CF
:100AF000F0309200031383129101921412148C109F
:100B00001217921612129211121108000313831673
:100B10000C148C14031383128B170B178B168B1565
:100B20000B100B110C108C100800031383161616F3
:0E0B3000961516150313831206080B10080005
:04400E00D420FF3F7C
:00000001FF
